{
  "abi": [
    {
      "inputs": [],
      "stateMutability": "nonpayable",
      "type": "constructor"
    },
    {
      "anonymous": false,
      "inputs": [
        {
          "indexed": false,
          "internalType": "contract Auction",
          "name": "auctionContract",
          "type": "address"
        },
        {
          "indexed": false,
          "internalType": "address",
          "name": "owner",
          "type": "address"
        }
      ],
      "name": "AuctionCreated",
      "type": "event"
    },
    {
      "inputs": [
        {
          "internalType": "contract Auction",
          "name": "",
          "type": "address"
        }
      ],
      "name": "auctionMap",
      "outputs": [
        {
          "internalType": "enum AuctionFactory.AuctionState",
          "name": "",
          "type": "uint8"
        }
      ],
      "stateMutability": "view",
      "type": "function"
    },
    {
      "inputs": [
        {
          "internalType": "uint256",
          "name": "",
          "type": "uint256"
        }
      ],
      "name": "auctions",
      "outputs": [
        {
          "internalType": "contract Auction",
          "name": "",
          "type": "address"
        }
      ],
      "stateMutability": "view",
      "type": "function"
    },
    {
      "inputs": [
        {
          "internalType": "uint256",
          "name": "_bidIncrement",
          "type": "uint256"
        },
        {
          "internalType": "uint256",
          "name": "_startBlock",
          "type": "uint256"
        },
        {
          "internalType": "uint256",
          "name": "_endBlock",
          "type": "uint256"
        },
        {
          "internalType": "address payable",
          "name": "_tokenboundAddress",
          "type": "address"
        }
      ],
      "name": "createAuction",
      "outputs": [],
      "stateMutability": "nonpayable",
      "type": "function"
    },
    {
      "inputs": [],
      "name": "getAuctions",
      "outputs": [
        {
          "internalType": "contract Auction[]",
          "name": "",
          "type": "address[]"
        }
      ],
      "stateMutability": "view",
      "type": "function"
    }
  ],
  "bytecode": {
    "object": "0x608060405234801561001057600080fd5b506119ca806100206000396000f3fe608060405234801561001057600080fd5b506004361061004c5760003560e01c8063571a26a0146100515780635922eb9f14610081578063819c9e4c146100b1578063d7c06919146100c6575b600080fd5b61006461005f36600461061a565b6100db565b6040516001600160a01b0390911681526020015b60405180910390f35b6100a461008f36600461064b565b60006020819052908152604090205460ff1681565b604051610078919061066f565b6100c46100bf366004610697565b610105565b005b6100ce610541565b60405161007891906106d8565b600181815481106100eb57600080fd5b6000918252602090912001546001600160a01b0316905081565b6000806000836001600160a01b031663fc0c546a6040518163ffffffff1660e01b8152600401606060405180830381865afa158015610148573d6000803e3d6000fd5b505050506040513d601f19601f8201168201806040525081019061016c9190610725565b9250925092504683146101c65760405162461bcd60e51b815260206004820181905260248201527f636861696e20646f6573206e6f74206d6174636820746f6b656e20636861696e60448201526064015b60405180910390fd5b604080518082018252600a8152693932b0b61037bbb732b960b11b602082015290516331a9108f60e11b81526004810183905261025891906001600160a01b03851690636352211e90602401602060405180830381865afa15801561022f573d6000803e3d6000fd5b505050506040513d601f19601f82011682018060405250810190610253919061075e565b6105a3565b6040516331a9108f60e11b81526004810182905233906001600160a01b03841690636352211e90602401602060405180830381865afa15801561029f573d6000803e3d6000fd5b505050506040513d601f19601f820116820180604052508101906102c3919061075e565b6001600160a01b0316146103255760405162461bcd60e51b8152602060048201526024808201527f61756374696f6e2063726561746f7220646f6573206e6f74206f776e20746f6b604482015263195b925960e21b60648201526084016101bd565b6040516301ffc9a760e01b81526380ac58cd60e01b600482015282906001600160a01b038216906301ffc9a790602401602060405180830381865afa158015610372573d6000803e3d6000fd5b505050506040513d601f19601f82011682018060405250810190610396919061077b565b6103ec5760405162461bcd60e51b815260206004820152602160248201527f4e6f7420616e2045524337323120746f6b656e626f756e6420636f6e747261636044820152601d60fa1b60648201526084016101bd565b6000888888886040516103fe9061060d565b938452602084019290925260408301526001600160a01b03166060820152608001604051809103906000f08015801561043b573d6000803e3d6000fd5b5060405163f2fde38b60e01b81523360048201529091506001600160a01b0382169063f2fde38b90602401600060405180830381600087803b15801561048057600080fd5b505af1158015610494573d6000803e3d6000fd5b5050604080516001600160a01b03851681523360208201527f0bdb7849ed0b0249d0f995067a2ca77769f68ab4c654931e262676effeb395f2935001905060405180910390a16001600160a01b03166000818152602081905260408120805460ff1916905560018054808201825591527fb10e2d527612073b26eecdfd717e6a320cf44b4afac2b0732d9fcbe2b7fa0cf60180546001600160a01b03191690911790555050505050505050565b6060600180548060200260200160405190810160405280929190818152602001828054801561059957602002820191906000526020600020905b81546001600160a01b0316815260019091019060200180831161057b575b5050505050905090565b6105e882826040516024016105b992919061079d565b60408051601f198184030181529190526020810180516001600160e01b031663319af33360e01b1790526105ec565b5050565b80516a636f6e736f6c652e6c6f67602083016000808483855afa5050505050565b611197806107fe83390190565b60006020828403121561062c57600080fd5b5035919050565b6001600160a01b038116811461064857600080fd5b50565b60006020828403121561065d57600080fd5b813561066881610633565b9392505050565b602081016003831061069157634e487b7160e01b600052602160045260246000fd5b91905290565b600080600080608085870312156106ad57600080fd5b84359350602085013592506040850135915060608501356106cd81610633565b939692955090935050565b6020808252825182820181905260009190848201906040850190845b818110156107195783516001600160a01b0316835292840192918401916001016106f4565b50909695505050505050565b60008060006060848603121561073a57600080fd5b83519250602084015161074c81610633565b80925050604084015190509250925092565b60006020828403121561077057600080fd5b815161066881610633565b60006020828403121561078d57600080fd5b8151801515811461066857600080fd5b604081526000835180604084015260005b818110156107cb57602081870181015160608684010152016107ae565b50600060608285018101919091526001600160a01b03949094166020840152601f01601f19169091019091019291505056fe60a060405234801561001057600080fd5b5060405161119738038061119783398101604081905261002f91610225565b610038336101d5565b438310156100a45760405162461bcd60e51b815260206004820152602e60248201527f537461727420626c6f636b206d7573742062652067726561746572207468616e60448201526d2063757272656e7420626c6f636b60901b60648201526084015b60405180910390fd5b8282116101065760405162461bcd60e51b815260206004820152602a60248201527f456e6420626c6f636b206d7573742062652067726561746572207468616e20736044820152697461727420626c6f636b60b01b606482015260840161009b565b600084116101625760405162461bcd60e51b8152602060048201526024808201527f42696420696e6372656d656e74206d75737420626520677265617465722074686044820152630616e20360e41b606482015260840161009b565b6001600160a01b0381166101b85760405162461bcd60e51b815260206004820152601e60248201527f546f6b656e626f756e6420616464726573732063616e6e6f7420626520300000604482015260640161009b565b6001600160a01b0316608052600192909255600255600355610274565b600080546001600160a01b038381166001600160a01b0319831681178455604051919092169283917f8be0079c531659141344cd1fd0a4f28419497f9722a3daafe3b4186f6b6457e09190a35050565b6000806000806080858703121561023b57600080fd5b845160208601516040870151606088015192965090945092506001600160a01b038116811461026957600080fd5b939692955090935050565b608051610f01610296600039600081816102690152610a850152610f016000f3fe6080604052600436106101095760003560e01c806391f9015711610095578063ce10cf8011610064578063ce10cf80146102c0578063ecfc7ecc146102ed578063f2fde38b146102f5578063f5b56c5614610315578063f77282ab1461032b57600080fd5b806391f90157146102375780639dac6b4514610257578063b3cc167a1461028b578063b3f05b97146102a157600080fd5b806348cd4cb1116100dc57806348cd4cb1146101965780634979440a146101ac578063715018a6146101d95780638da5cb5b146101f05780638fa8b7901461022257600080fd5b806301ffc9a71461010e578063083c6323146101435780633ccfd60b146101675780633f9942ff1461017c575b600080fd5b34801561011a57600080fd5b5061012e610129366004610dd1565b610340565b60405190151581526020015b60405180910390f35b34801561014f57600080fd5b5061015960035481565b60405190815260200161013a565b34801561017357600080fd5b5061012e610377565b34801561018857600080fd5b5060045461012e9060ff1681565b3480156101a257600080fd5b5061015960025481565b3480156101b857600080fd5b506006546001600160a01b0316600090815260076020526040902054610159565b3480156101e557600080fd5b506101ee6105d8565b005b3480156101fc57600080fd5b506000546001600160a01b03165b6040516001600160a01b03909116815260200161013a565b34801561022e57600080fd5b5061012e6105ec565b34801561024357600080fd5b5060065461020a906001600160a01b031681565b34801561026357600080fd5b5061020a7f000000000000000000000000000000000000000000000000000000000000000081565b34801561029757600080fd5b5061015960015481565b3480156102ad57600080fd5b5060045461012e90610100900460ff1681565b3480156102cc57600080fd5b506101596102db366004610e17565b60076020526000908152604090205481565b61012e6106bf565b34801561030157600080fd5b506101ee610310366004610e17565b610978565b34801561032157600080fd5b5061015960055481565b34801561033757600080fd5b5061012e6109f1565b60006001600160e01b031982166301ffc9a760e01b148061037157506001600160e01b03198216630801407360e31b145b92915050565b60045460009060ff16158061038d575060035443115b6103de5760405162461bcd60e51b815260206004820152601d60248201527f41756374696f6e206e6f7420656e646564206f722063616e63656c656400000060448201526064015b60405180910390fd5b60045460ff166104275760405162461bcd60e51b8152602060048201526014602482015273105d58dd1a5bdb881b9bdd0818d85b98d95b195960621b60448201526064016103d5565b600454600090819060ff161561044e575050336000818152600760205260409020546104e3565b6006546001600160a01b031633036104d0576006546004546001600160a01b039091169250610100900460ff16156104a157506006546001600160a01b03166000908152600760205260409020546104e3565b6005546006546001600160a01b03166000908152600760205260409020546104c99190610e4a565b90506104e3565b5050336000818152600760205260409020545b8060000361052a5760405162461bcd60e51b81526020600482015260146024820152734e6f2066756e647320746f20776974686472617760601b60448201526064016103d5565b6001600160a01b03821660009081526007602052604081208054839290610552908490610e4a565b9091555050604051339082156108fc029083906000818181858888f19350505050158015610584573d6000803e3d6000fd5b50604080513381526001600160a01b03841660208201529081018290527f0ec497a8ae5b1ba29c60470ef651def995fac3deebbdcc56c47a4e5f51a4c2bd906060015b60405180910390a160019250505090565b6105e0610d10565b6105ea6000610d6a565b565b60006105f6610d10565b60035443111561063a5760405162461bcd60e51b815260206004820152600f60248201526e20bab1ba34b7b71034b99037bb32b960891b60448201526064016103d5565b60045460ff16156106835760405162461bcd60e51b8152602060048201526013602482015272105d58dd1a5bdb881a5cc818d85b98d95b1959606a1b60448201526064016103d5565b6004805460ff191660011790556040517f462b6ca7f632601af1295aeb320851f50e8e630a309173f23535845ea4bfb3b990600090a150600190565b60006002544310156107135760405162461bcd60e51b815260206004820152601b60248201527f41756374696f6e20686173206e6f74207374617274656420796574000000000060448201526064016103d5565b6003544311156107575760405162461bcd60e51b815260206004820152600f60248201526e20bab1ba34b7b71034b99037bb32b960891b60448201526064016103d5565b60045460ff16156107a05760405162461bcd60e51b8152602060048201526013602482015272105d58dd1a5bdb881a5cc818d85b98d95b1959606a1b60448201526064016103d5565b6000546001600160a01b031633036108085760405162461bcd60e51b815260206004820152602560248201527f4f776e65722063616e6e6f7420626964206f6e207468656972206f776e20617560448201526431ba34b7b760d91b60648201526084016103d5565b600034116108585760405162461bcd60e51b815260206004820152601960248201527f426964206d75737420626520686967686572207468616e20300000000000000060448201526064016103d5565b33600090815260076020526040812054610873903490610e5d565b905060055481116108c65760405162461bcd60e51b815260206004820152601a60248201527f4d696e696d756d2062696420616d6f756e74206e6f74206d657400000000000060448201526064016103d5565b6006546001600160a01b0316600090815260076020526040808220543383529120829055600154610901906108fb9084610e5d565b82610dba565b6005558082111561091f57600680546001600160a01b031916331790555b60065460055460408051338152602081018690526001600160a01b03909316908301526060820183905260808201527ff152f4ff5e488c55370a2d53925a55055228ebd8ec95bd0251bbb299e48786b09060a0016105c7565b610980610d10565b6001600160a01b0381166109e55760405162461bcd60e51b815260206004820152602660248201527f4f776e61626c653a206e6577206f776e657220697320746865207a65726f206160448201526564647265737360d01b60648201526084016103d5565b6109ee81610d6a565b50565b60006109fb610d10565b60045460ff161580610a0e575060035443115b610a5a5760405162461bcd60e51b815260206004820152601d60248201527f41756374696f6e206e6f7420656e646564206f722063616e63656c656400000060448201526064016103d5565b60065460055460408051637e062a3560e11b815290516001600160a01b0393841693600092839283927f0000000000000000000000000000000000000000000000000000000000000000169163fc0c546a9160048083019260609291908290030181865afa158015610ad0573d6000803e3d6000fd5b505050506040513d601f19601f82011682018060405250810190610af49190610e70565b925092509250468314610b0d5760009550505050505090565b6001600160a01b03851660009081526007602052604081208054869290610b35908490610e4a565b9091555050604051339085156108fc029086906000818181858888f19350505050158015610b67573d6000803e3d6000fd5b50604080513381526001600160a01b03871660208201529081018590527f0ec497a8ae5b1ba29c60470ef651def995fac3deebbdcc56c47a4e5f51a4c2bd9060600160405180910390a16040516301ffc9a760e01b81526380ac58cd60e01b600482015282906001600160a01b038216906301ffc9a790602401602060405180830381865afa158015610bfe573d6000803e3d6000fd5b505050506040513d601f19601f82011682018060405250810190610c229190610ea9565b15610c98576040516323b872dd60e01b81523060048201526001600160a01b038781166024830152604482018490528491908216906323b872dd90606401600060405180830381600087803b158015610c7a57600080fd5b505af1158015610c8e573d6000803e3d6000fd5b5050505050610cf4565b60405162461bcd60e51b815260206004820152602b60248201527f6f6e6c792045524337323120697320737570706f72746564206173207061726560448201526a1b9d0818dbdb9d1c9858dd60aa1b60648201526084016103d5565b50506004805461ff001916610100179055506001935050505090565b6000546001600160a01b031633146105ea5760405162461bcd60e51b815260206004820181905260248201527f4f776e61626c653a2063616c6c6572206973206e6f7420746865206f776e657260448201526064016103d5565b600080546001600160a01b038381166001600160a01b0319831681178455604051919092169283917f8be0079c531659141344cd1fd0a4f28419497f9722a3daafe3b4186f6b6457e09190a35050565b600081831015610dcb575081610371565b50919050565b600060208284031215610de357600080fd5b81356001600160e01b031981168114610dfb57600080fd5b9392505050565b6001600160a01b03811681146109ee57600080fd5b600060208284031215610e2957600080fd5b8135610dfb81610e02565b634e487b7160e01b600052601160045260246000fd5b8181038181111561037157610371610e34565b8082018082111561037157610371610e34565b600080600060608486031215610e8557600080fd5b835192506020840151610e9781610e02565b80925050604084015190509250925092565b600060208284031215610ebb57600080fd5b81518015158114610dfb57600080fdfea2646970667358221220f3ea55367809359b710e3556ad541b023294b7b7c8756d183ea249f395badad264736f6c63430008130033a2646970667358221220342d102fff777ed689a300bcafe394fdc32696a4478920b328132e4b5b23de4a64736f6c63430008130033",
    "linkReferences": {}
  },
  "methodIdentifiers": {
    "auctionMap(address)": "5922eb9f",
    "auctions(uint256)": "571a26a0",
    "createAuction(uint256,uint256,uint256,address)": "819c9e4c",
    "getAuctions()": "d7c06919"
  },
  "id": 1
}