{
  "abi": [
    {
      "anonymous": false,
      "inputs": [
        {
          "indexed": true,
          "internalType": "address",
          "name": "target",
          "type": "address"
        },
        {
          "indexed": true,
          "internalType": "uint256",
          "name": "value",
          "type": "uint256"
        },
        {
          "indexed": false,
          "internalType": "bytes",
          "name": "data",
          "type": "bytes"
        }
      ],
      "name": "TransactionExecuted",
      "type": "event"
    },
    {
      "inputs": [
        {
          "internalType": "address",
          "name": "to",
          "type": "address"
        },
        {
          "internalType": "uint256",
          "name": "value",
          "type": "uint256"
        },
        {
          "internalType": "bytes",
          "name": "data",
          "type": "bytes"
        }
      ],
      "name": "executeCall",
      "outputs": [
        {
          "internalType": "bytes",
          "name": "result",
          "type": "bytes"
        }
      ],
      "stateMutability": "payable",
      "type": "function"
    },
    {
      "inputs": [
        {
          "internalType": "bytes32",
          "name": "hash",
          "type": "bytes32"
        },
        {
          "internalType": "bytes",
          "name": "signature",
          "type": "bytes"
        }
      ],
      "name": "isValidSignature",
      "outputs": [
        {
          "internalType": "bytes4",
          "name": "magicValue",
          "type": "bytes4"
        }
      ],
      "stateMutability": "view",
      "type": "function"
    },
    {
      "inputs": [],
      "name": "isVerified",
      "outputs": [
        {
          "internalType": "bool",
          "name": "",
          "type": "bool"
        }
      ],
      "stateMutability": "view",
      "type": "function"
    },
    {
      "inputs": [],
      "name": "nonce",
      "outputs": [
        {
          "internalType": "uint256",
          "name": "",
          "type": "uint256"
        }
      ],
      "stateMutability": "view",
      "type": "function"
    },
    {
      "inputs": [
        {
          "internalType": "address",
          "name": "",
          "type": "address"
        },
        {
          "internalType": "address",
          "name": "",
          "type": "address"
        },
        {
          "internalType": "uint256[]",
          "name": "",
          "type": "uint256[]"
        },
        {
          "internalType": "uint256[]",
          "name": "",
          "type": "uint256[]"
        },
        {
          "internalType": "bytes",
          "name": "",
          "type": "bytes"
        }
      ],
      "name": "onERC1155BatchReceived",
      "outputs": [
        {
          "internalType": "bytes4",
          "name": "",
          "type": "bytes4"
        }
      ],
      "stateMutability": "nonpayable",
      "type": "function"
    },
    {
      "inputs": [
        {
          "internalType": "address",
          "name": "",
          "type": "address"
        },
        {
          "internalType": "address",
          "name": "",
          "type": "address"
        },
        {
          "internalType": "uint256",
          "name": "",
          "type": "uint256"
        },
        {
          "internalType": "uint256",
          "name": "",
          "type": "uint256"
        },
        {
          "internalType": "bytes",
          "name": "",
          "type": "bytes"
        }
      ],
      "name": "onERC1155Received",
      "outputs": [
        {
          "internalType": "bytes4",
          "name": "",
          "type": "bytes4"
        }
      ],
      "stateMutability": "nonpayable",
      "type": "function"
    },
    {
      "inputs": [
        {
          "internalType": "address",
          "name": "",
          "type": "address"
        },
        {
          "internalType": "address",
          "name": "",
          "type": "address"
        },
        {
          "internalType": "uint256",
          "name": "",
          "type": "uint256"
        },
        {
          "internalType": "bytes",
          "name": "",
          "type": "bytes"
        }
      ],
      "name": "onERC721Received",
      "outputs": [
        {
          "internalType": "bytes4",
          "name": "",
          "type": "bytes4"
        }
      ],
      "stateMutability": "nonpayable",
      "type": "function"
    },
    {
      "inputs": [],
      "name": "owner",
      "outputs": [
        {
          "internalType": "address",
          "name": "",
          "type": "address"
        }
      ],
      "stateMutability": "view",
      "type": "function"
    },
    {
      "inputs": [
        {
          "internalType": "bytes32",
          "name": "merkleRoot",
          "type": "bytes32"
        }
      ],
      "name": "setVerifiedRoot",
      "outputs": [],
      "stateMutability": "nonpayable",
      "type": "function"
    },
    {
      "inputs": [
        {
          "internalType": "bytes4",
          "name": "interfaceId",
          "type": "bytes4"
        }
      ],
      "name": "supportsInterface",
      "outputs": [
        {
          "internalType": "bool",
          "name": "",
          "type": "bool"
        }
      ],
      "stateMutability": "pure",
      "type": "function"
    },
    {
      "inputs": [],
      "name": "token",
      "outputs": [
        {
          "internalType": "uint256",
          "name": "",
          "type": "uint256"
        },
        {
          "internalType": "address",
          "name": "",
          "type": "address"
        },
        {
          "internalType": "uint256",
          "name": "",
          "type": "uint256"
        }
      ],
      "stateMutability": "view",
      "type": "function"
    },
    {
      "inputs": [],
      "name": "verifiedRoot",
      "outputs": [
        {
          "internalType": "bytes32",
          "name": "",
          "type": "bytes32"
        }
      ],
      "stateMutability": "view",
      "type": "function"
    },
    {
      "inputs": [
        {
          "internalType": "bytes32[]",
          "name": "merkleProof",
          "type": "bytes32[]"
        }
      ],
      "name": "verifyBundle",
      "outputs": [],
      "stateMutability": "view",
      "type": "function"
    },
    {
      "stateMutability": "payable",
      "type": "receive"
    }
  ],
  "bytecode": {
    "object": "0x608060405234801561001057600080fd5b506110f2806100206000396000f3fe6080604052600436106100c65760003560e01c80639e5d4c491161007f578063bc197c8111610059578063bc197c8114610239578063f0072cb114610272578063f23a6e6114610292578063fc0c546a146102c957600080fd5b80639e5d4c49146101e1578063aa36936514610201578063affed0e01461022357600080fd5b806301ffc9a7146100d2578063150b7a02146101075780631626ba7e1461015657806380007e83146101765780638da5cb5b146101905780639d54b493146101bd57600080fd5b366100cd57005b600080fd5b3480156100de57600080fd5b506100f26100ed366004610b1c565b610301565b60405190151581526020015b60405180910390f35b34801561011357600080fd5b5061013d610122366004610ba0565b6001805460ff19169055630a85bd0160e11b95945050505050565b6040516001600160e01b031990911681526020016100fe565b34801561016257600080fd5b5061013d610171366004610c29565b610353565b34801561018257600080fd5b506001546100f29060ff1681565b34801561019c57600080fd5b506101a561038a565b6040516001600160a01b0390911681526020016100fe565b3480156101c957600080fd5b506101d360025481565b6040519081526020016100fe565b6101f46101ef366004610ce4565b61047a565b6040516100fe9190610d90565b34801561020d57600080fd5b5061022161021c366004610de8565b6105d9565b005b34801561022f57600080fd5b506101d360005481565b34801561024557600080fd5b5061013d610254366004610e2a565b6001805460ff1916905563bc197c8160e01b98975050505050505050565b34801561027e57600080fd5b5061022161028d366004610ee9565b61069a565b34801561029e57600080fd5b5061013d6102ad366004610f02565b6001805460ff1916905563f23a6e6160e01b9695505050505050565b3480156102d557600080fd5b506102de6106fc565b604080519384526001600160a01b039092166020840152908201526060016100fe565b60006001600160e01b031982166301ffc9a760e01b148061033257506001600160e01b03198216630271189760e51b145b8061034d57506001600160e01b03198216630801407360e31b145b92915050565b60008061036861036161038a565b8585610714565b905080156103805750630b135d3f60e11b905061034d565b5060009392505050565b600080600080306001600160a01b031663fc0c546a6040518163ffffffff1660e01b8152600401606060405180830381865afa1580156103ce573d6000803e3d6000fd5b505050506040513d601f19601f820116820180604052508101906103f29190610f7e565b925092509250468314610409576000935050505090565b6040516331a9108f60e11b8152600481018290526001600160a01b03831690636352211e90602401602060405180830381865afa15801561044e573d6000803e3d6000fd5b505050506040513d601f19601f820116820180604052508101906104729190610fb7565b935050505090565b606061048461038a565b6001600160a01b0316336001600160a01b0316146104db5760405162461bcd60e51b815260206004820152600f60248201526e2737ba103a37b5b2b71037bbb732b960891b60448201526064015b60405180910390fd5b60008081546104e990610fd4565b9190508190555083856001600160a01b03167f47d99ad340f52da66535aff7e10da1ceb85a32bcbd9fa1c42314d194545e14d2858560405161052c929190610ffb565b60405180910390a3600061054b6000356001600160e01b031916610775565b9050801561055e576001805460ff191690555b6000866001600160a01b031686868660405161057b92919061102a565b60006040518083038185875af1925050503d80600081146105b8576040519150601f19603f3d011682016040523d82523d6000602084013e6105bd565b606091505b5093509050806105cf57825160208401fd5b5050949350505050565b6000610650838380806020026020016040519081016040528093929190818152602001838360200280828437600092019190915250506002546040516bffffffffffffffffffffffff193360601b16602082015290925060340190506040516020818303038152906040528051906020012061083f565b9050806106955760405162461bcd60e51b815260206004820152601360248201527215995c9a599a58d85d1a5bdb8819985a5b1959606a1b60448201526064016104d2565b505050565b336106a361038a565b6001600160a01b0316146106eb5760405162461bcd60e51b815260206004820152600f60248201526e2737ba103a37b5b2b71037bbb732b960891b60448201526064016104d2565b6002556001805460ff191681179055565b6000806000610709610855565b925092509250909192565b600080600061072385856108a8565b9092509050600081600481111561073c5761073c61103a565b14801561075a5750856001600160a01b0316826001600160a01b0316145b8061076b575061076b8686866108ed565b9695505050505050565b60006001600160e01b03198216632142170760e11b0361079757506001919050565b6001600160e01b031982166323b872dd60e01b036107b757506001919050565b6001600160e01b03198216635c46a7ef60e11b036107d757506001919050565b6001600160e01b031982166323b872dd60e01b036107f757506001919050565b6001600160e01b03198216637921219560e11b0361081757506001919050565b6001600160e01b03198216631759616b60e11b0361083757506001919050565b506000919050565b60008261084c85846109d9565b14949350505050565b604080516060808252608082019092526000918291829182919060208201818036833701905050905060ad604d60208301303c8080602001905181019061089c9190610f7e565b93509350935050909192565b60008082516041036108de5760208301516040840151606085015160001a6108d287828585610a26565b945094505050506108e6565b506000905060025b9250929050565b6000806000856001600160a01b0316631626ba7e60e01b8686604051602401610917929190611050565b60408051601f198184030181529181526020820180516001600160e01b03166001600160e01b03199094169390931790925290516109559190611071565b600060405180830381855afa9150503d8060008114610990576040519150601f19603f3d011682016040523d82523d6000602084013e610995565b606091505b50915091508180156109a957506020815110155b801561076b57508051630b135d3f60e11b906109ce908301602090810190840161108d565b149695505050505050565b600081815b8451811015610a1e57610a0a828683815181106109fd576109fd6110a6565b6020026020010151610aea565b915080610a1681610fd4565b9150506109de565b509392505050565b6000807f7fffffffffffffffffffffffffffffff5d576e7357a4501ddfe92f46681b20a0831115610a5d5750600090506003610ae1565b6040805160008082526020820180845289905260ff881692820192909252606081018690526080810185905260019060a0016020604051602081039080840390855afa158015610ab1573d6000803e3d6000fd5b5050604051601f1901519150506001600160a01b038116610ada57600060019250925050610ae1565b9150600090505b94509492505050565b6000818310610b06576000828152602084905260409020610b15565b60008381526020839052604090205b9392505050565b600060208284031215610b2e57600080fd5b81356001600160e01b031981168114610b1557600080fd5b6001600160a01b0381168114610b5b57600080fd5b50565b60008083601f840112610b7057600080fd5b50813567ffffffffffffffff811115610b8857600080fd5b6020830191508360208285010111156108e657600080fd5b600080600080600060808688031215610bb857600080fd5b8535610bc381610b46565b94506020860135610bd381610b46565b935060408601359250606086013567ffffffffffffffff811115610bf657600080fd5b610c0288828901610b5e565b969995985093965092949392505050565b634e487b7160e01b600052604160045260246000fd5b60008060408385031215610c3c57600080fd5b82359150602083013567ffffffffffffffff80821115610c5b57600080fd5b818501915085601f830112610c6f57600080fd5b813581811115610c8157610c81610c13565b604051601f8201601f19908116603f01168101908382118183101715610ca957610ca9610c13565b81604052828152886020848701011115610cc257600080fd5b8260208601602083013760006020848301015280955050505050509250929050565b60008060008060608587031215610cfa57600080fd5b8435610d0581610b46565b935060208501359250604085013567ffffffffffffffff811115610d2857600080fd5b610d3487828801610b5e565b95989497509550505050565b60005b83811015610d5b578181015183820152602001610d43565b50506000910152565b60008151808452610d7c816020860160208601610d40565b601f01601f19169290920160200192915050565b602081526000610b156020830184610d64565b60008083601f840112610db557600080fd5b50813567ffffffffffffffff811115610dcd57600080fd5b6020830191508360208260051b85010111156108e657600080fd5b60008060208385031215610dfb57600080fd5b823567ffffffffffffffff811115610e1257600080fd5b610e1e85828601610da3565b90969095509350505050565b60008060008060008060008060a0898b031215610e4657600080fd5b8835610e5181610b46565b97506020890135610e6181610b46565b9650604089013567ffffffffffffffff80821115610e7e57600080fd5b610e8a8c838d01610da3565b909850965060608b0135915080821115610ea357600080fd5b610eaf8c838d01610da3565b909650945060808b0135915080821115610ec857600080fd5b50610ed58b828c01610b5e565b999c989b5096995094979396929594505050565b600060208284031215610efb57600080fd5b5035919050565b60008060008060008060a08789031215610f1b57600080fd5b8635610f2681610b46565b95506020870135610f3681610b46565b94506040870135935060608701359250608087013567ffffffffffffffff811115610f6057600080fd5b610f6c89828a01610b5e565b979a9699509497509295939492505050565b600080600060608486031215610f9357600080fd5b835192506020840151610fa581610b46565b80925050604084015190509250925092565b600060208284031215610fc957600080fd5b8151610b1581610b46565b600060018201610ff457634e487b7160e01b600052601160045260246000fd5b5060010190565b60208152816020820152818360408301376000818301604090810191909152601f909201601f19160101919050565b8183823760009101908152919050565b634e487b7160e01b600052602160045260246000fd5b8281526040602082015260006110696040830184610d64565b949350505050565b60008251611083818460208701610d40565b9190910192915050565b60006020828403121561109f57600080fd5b5051919050565b634e487b7160e01b600052603260045260246000fdfea2646970667358221220de25a814f0f056f2b9c2af850b25f0b309df209b60424f546c1a3f0c876ad22864736f6c63430008130033",
    "linkReferences": {}
  },
  "methodIdentifiers": {
    "executeCall(address,uint256,bytes)": "9e5d4c49",
    "isValidSignature(bytes32,bytes)": "1626ba7e",
    "isVerified()": "80007e83",
    "nonce()": "affed0e0",
    "onERC1155BatchReceived(address,address,uint256[],uint256[],bytes)": "bc197c81",
    "onERC1155Received(address,address,uint256,uint256,bytes)": "f23a6e61",
    "onERC721Received(address,address,uint256,bytes)": "150b7a02",
    "owner()": "8da5cb5b",
    "setVerifiedRoot(bytes32)": "f0072cb1",
    "supportsInterface(bytes4)": "01ffc9a7",
    "token()": "fc0c546a",
    "verifiedRoot()": "9d54b493",
    "verifyBundle(bytes32[])": "aa369365"
  },
  "id": 1
}